{
  "_format": "hh-sol-artifact-1",
  "contractName": "Messenger",
  "sourceName": "contracts/messenger.sol",
  "abi": [
    {
      "inputs": [
        {
          "internalType": "string",
          "name": "_content",
          "type": "string"
        }
      ],
      "name": "addMessage",
      "outputs": [],
      "stateMutability": "nonpayable",
      "type": "function"
    },
    {
      "inputs": [],
      "name": "listMessage",
      "outputs": [
        {
          "components": [
            {
              "internalType": "uint16",
              "name": "messageID",
              "type": "uint16"
            },
            {
              "internalType": "address",
              "name": "Address",
              "type": "address"
            },
            {
              "internalType": "string",
              "name": "Message",
              "type": "string"
            }
          ],
          "internalType": "struct Messenger.User[]",
          "name": "",
          "type": "tuple[]"
        }
      ],
      "stateMutability": "view",
      "type": "function"
    },
    {
      "inputs": [
        {
          "internalType": "uint256",
          "name": "",
          "type": "uint256"
        }
      ],
      "name": "users",
      "outputs": [
        {
          "internalType": "uint16",
          "name": "messageID",
          "type": "uint16"
        },
        {
          "internalType": "address",
          "name": "Address",
          "type": "address"
        },
        {
          "internalType": "string",
          "name": "Message",
          "type": "string"
        }
      ],
      "stateMutability": "view",
      "type": "function"
    }
  ],
  "bytecode": "0x608060405260008060006101000a81548161ffff021916908361ffff16021790555034801561002d57600080fd5b50610cc58061003d6000396000f3fe608060405234801561001057600080fd5b50600436106100415760003560e01c8063365b98b2146100465780636a226a4914610078578063eb6b42c714610094575b600080fd5b610060600480360381019061005b91906104e5565b6100b2565b60405161006f93929190610600565b60405180910390f35b610092600480360381019061008d9190610773565b6101a2565b005b61009c6102f9565b6040516100a99190610936565b60405180910390f35b600181815481106100c257600080fd5b90600052602060002090600202016000915090508060000160009054906101000a900461ffff16908060000160029054906101000a900473ffffffffffffffffffffffffffffffffffffffff169080600101805461011f90610987565b80601f016020809104026020016040519081016040528092919081815260200182805461014b90610987565b80156101985780601f1061016d57610100808354040283529160200191610198565b820191906000526020600020905b81548152906001019060200180831161017b57829003601f168201915b5050505050905083565b6101aa610460565b60008054906101000a900461ffff16816000019061ffff16908161ffff168152505033816020019073ffffffffffffffffffffffffffffffffffffffff16908173ffffffffffffffffffffffffffffffffffffffff168152505081816040018190525060008081819054906101000a900461ffff168092919061022c906109e7565b91906101000a81548161ffff021916908361ffff16021790555050600181908060018154018082558091505060019003906000526020600020906002020160009091909190915060008201518160000160006101000a81548161ffff021916908361ffff16021790555060208201518160000160026101000a81548173ffffffffffffffffffffffffffffffffffffffff021916908373ffffffffffffffffffffffffffffffffffffffff16021790555060408201518160010190816102f29190610bbd565b5050505050565b60606001805480602002602001604051908101604052809291908181526020016000905b8282101561045757838290600052602060002090600202016040518060600160405290816000820160009054906101000a900461ffff1661ffff1661ffff1681526020016000820160029054906101000a900473ffffffffffffffffffffffffffffffffffffffff1673ffffffffffffffffffffffffffffffffffffffff1673ffffffffffffffffffffffffffffffffffffffff1681526020016001820180546103c690610987565b80601f01602080910402602001604051908101604052809291908181526020018280546103f290610987565b801561043f5780601f106104145761010080835404028352916020019161043f565b820191906000526020600020905b81548152906001019060200180831161042257829003601f168201915b5050505050815250508152602001906001019061031d565b50505050905090565b6040518060600160405280600061ffff168152602001600073ffffffffffffffffffffffffffffffffffffffff168152602001606081525090565b6000604051905090565b600080fd5b600080fd5b6000819050919050565b6104c2816104af565b81146104cd57600080fd5b50565b6000813590506104df816104b9565b92915050565b6000602082840312156104fb576104fa6104a5565b5b6000610509848285016104d0565b91505092915050565b600061ffff82169050919050565b61052981610512565b82525050565b600073ffffffffffffffffffffffffffffffffffffffff82169050919050565b600061055a8261052f565b9050919050565b61056a8161054f565b82525050565b600081519050919050565b600082825260208201905092915050565b60005b838110156105aa57808201518184015260208101905061058f565b60008484015250505050565b6000601f19601f8301169050919050565b60006105d282610570565b6105dc818561057b565b93506105ec81856020860161058c565b6105f5816105b6565b840191505092915050565b60006060820190506106156000830186610520565b6106226020830185610561565b818103604083015261063481846105c7565b9050949350505050565b600080fd5b600080fd5b7f4e487b7100000000000000000000000000000000000000000000000000000000600052604160045260246000fd5b610680826105b6565b810181811067ffffffffffffffff8211171561069f5761069e610648565b5b80604052505050565b60006106b261049b565b90506106be8282610677565b919050565b600067ffffffffffffffff8211156106de576106dd610648565b5b6106e7826105b6565b9050602081019050919050565b82818337600083830152505050565b6000610716610711846106c3565b6106a8565b90508281526020810184848401111561073257610731610643565b5b61073d8482856106f4565b509392505050565b600082601f83011261075a5761075961063e565b5b813561076a848260208601610703565b91505092915050565b600060208284031215610789576107886104a5565b5b600082013567ffffffffffffffff8111156107a7576107a66104aa565b5b6107b384828501610745565b91505092915050565b600081519050919050565b600082825260208201905092915050565b6000819050602082019050919050565b6107f181610512565b82525050565b6108008161054f565b82525050565b600082825260208201905092915050565b600061082282610570565b61082c8185610806565b935061083c81856020860161058c565b610845816105b6565b840191505092915050565b600060608301600083015161086860008601826107e8565b50602083015161087b60208601826107f7565b50604083015184820360408601526108938282610817565b9150508091505092915050565b60006108ac8383610850565b905092915050565b6000602082019050919050565b60006108cc826107bc565b6108d681856107c7565b9350836020820285016108e8856107d8565b8060005b85811015610924578484038952815161090585826108a0565b9450610910836108b4565b925060208a019950506001810190506108ec565b50829750879550505050505092915050565b6000602082019050818103600083015261095081846108c1565b905092915050565b7f4e487b7100000000000000000000000000000000000000000000000000000000600052602260045260246000fd5b6000600282049050600182168061099f57607f821691505b6020821081036109b2576109b1610958565b5b50919050565b7f4e487b7100000000000000000000000000000000000000000000000000000000600052601160045260246000fd5b60006109f282610512565b915061ffff8203610a0657610a056109b8565b5b600182019050919050565b60008190508160005260206000209050919050565b60006020601f8301049050919050565b600082821b905092915050565b600060088302610a737fffffffffffffffffffffffffffffffffffffffffffffffffffffffffffffffff82610a36565b610a7d8683610a36565b95508019841693508086168417925050509392505050565b6000819050919050565b6000610aba610ab5610ab0846104af565b610a95565b6104af565b9050919050565b6000819050919050565b610ad483610a9f565b610ae8610ae082610ac1565b848454610a43565b825550505050565b600090565b610afd610af0565b610b08818484610acb565b505050565b5b81811015610b2c57610b21600082610af5565b600181019050610b0e565b5050565b601f821115610b7157610b4281610a11565b610b4b84610a26565b81016020851015610b5a578190505b610b6e610b6685610a26565b830182610b0d565b50505b505050565b600082821c905092915050565b6000610b9460001984600802610b76565b1980831691505092915050565b6000610bad8383610b83565b9150826002028217905092915050565b610bc682610570565b67ffffffffffffffff811115610bdf57610bde610648565b5b610be98254610987565b610bf4828285610b30565b600060209050601f831160018114610c275760008415610c15578287015190505b610c1f8582610ba1565b865550610c87565b601f198416610c3586610a11565b60005b82811015610c5d57848901518255600182019150602085019450602081019050610c38565b86831015610c7a5784890151610c76601f891682610b83565b8355505b6001600288020188555050505b50505050505056fea2646970667358221220d352fa242e5820572c2688d5636786bb43e9eae7b9c15162d3f80775c2252efc64736f6c63430008120033",
  "linkReferences": {},
  "deployedLinkReferences": {}
}